:100000000000012001040000450C0000EB1100007D
:10001000450C0000450C0000450C000000000000ED
:10002000000000000000000000000000450C00007F
:10003000450C000000000000450C0000450C0000CD
:10004000450C0000450C0000450C0000450C00006C
:10005000450C0000450C0000450C0000450C00005C
:10006000450C0000450C0000450C0000450C00004C
:10007000450C0000450C0000450C0000450C00003C
:1004000080B56F4600F02AFC40F20000C2F2000006
:1004100040F20401C2F2000100F0C7FA40F200000D
:10042000C2F2000040F20001C2F2000141F2AC72DF
:10043000C0F2000200F0E8FA00F0FDF880B56F4667
:1004400084B000F0B0F8019007F8020C00F042F917
:1004500000F04FFE03A800F05CF8014601980A4640
:10046000029207F8011C00F0B7F828B9FFE70298DC
:1004700000F0010004B080BD00F027F9F7E780B577
:100480006F4684B000F08FF8019007F8020C00F07E
:1004900021F900F02EFE03A800F057F8014601985C
:1004A0000A46029207F8011C00F096F828B9FFE707
:1004B000029800F0010004B080BD00F006F9F7E7F3
:1004C00080B56F4684B000F06EF8019007F8020C1A
:1004D00000F000F900F00DFE03A800F08BF80146D3
:1004E00001980A46029207F8011C00F075F828B935
:1004F000FFE7029800F0010004B080BD00F0E5F8CD
:10050000F7E781B08DF802008DF80300C0B201B0AA
:10051000704780B56F4682B0019040F20100C2F290
:1005200000000078C00730B9FFE700F032FA012080
:1005300007F8060C03E0002007F8060CFFE717F8A1
:10054000060C00F0010002B080BD80B56F4682B09D
:10055000019000F014FA07F8060C17F8060CC00713
:1005600020B9FFE7002007F8070C05E000F018FAB3
:10057000012007F8070CFFE717F8070C00F001004F
:1005800002B080BD84B000900191007800F00100BD
:100590000290097801F001010391401AB0FA80F04D
:1005A000400904B0704780B56F4682B000F09EFDF0
:1005B000019000F00100012804D0FFE7002007F8B7
:1005C000050C03E0012007F8050CFFE717F8050C00
:1005D00000F0010002B080BD80B56F4682B007F820
:1005E000010C41F21821C0F20001781EFFF7CAFF8A
:1005F00002B080BD80B56F4682B0019040F200002D
:10060000C2F200000078C00730B9FFE700F0B0F98F
:10061000012007F8060C03E0002007F8060CFFE7AE
:1006200017F8060C00F0010002B080BD80B56F46DF
:1006300000F05AFD80BD80B56F4600F000F880B52F
:100640006F4688B0FFF7F2FF00F08DF907F8020C53
:1006500017F8020CC00730B9FFE741F22420C0F2BE
:10066000000000F047FD00F08FF907F8010C17F8C3
:10067000010CC00730B9FFE741F23420C0F200009E
:1006800000F038FD00F02DFB00F00CF900F062F9ED
:1006900000F02AFBFFE7781F019000F020F807A880
:1006A000029000F08BF8F81E03904FF47A710491D9
:1006B00000F029FB019800F037F8029800F059F893
:1006C0000398049900F01FFBE5E780B56F4600F042
:1006D00009FD80BD80B56F4600F002FD80BD80B58C
:1006E0006F4688B0019040F28420C4F2320000903E
:1006F000039000200490029002A800F00AF801463E
:100700000098096805900691079000F076FC08B003
:1007100080BD87B001900390082104910590069157
:100720000160029007B0704780B56F4688B00190B5
:1007300040F28820C4F23200009003900020049020
:10074000029002A800F00AF8014600980968059096
:100750000691079000F051FC08B080BD87B0019071
:10076000039008210491059006910160029007B062
:10077000704780B56F4688B0019040F28420C4F283
:1007800032000090039000200490029002A800F034
:100790000AF801460098096805900691079000F054
:1007A0002CFC08B080BD87B001900390102104910B
:1007B000059006910160029007B0704780B56F46C2
:1007C00088B0019040F28820C4F23200009003907B
:1007D00000200490029002A800F00AF80146009858
:1007E000096805900691079000F007FC08B080BDED
:1007F00087B001900390102104910590069101604B
:10080000029007B0704780B56F4690B007F8351C6E
:10081000039040F2A820C4F2320001900690A7F1A4
:100820003501009107910B900C9000F081FB01467F
:1008300000980891099104910A91059104A905AACB
:1008400000F00AF80146019809680D900E910F908A
:1008500000F0D3FB10B080BD80B56F468CB0029025
:10086000039104920692079202980078089207F882
:10087000090C08990A91096821F4E041019141F2BB
:100880008421C0F20001FFF73CFE0146019801F00F
:10089000070208990B9140EA023008600898059019
:1008A0000CB080BD80B56F4682B0781E0621FFF780
:1008B000AAFF02B080BD80B56F4690B007F8351C26
:1008C000039040F2A820C4F2320001900690A7F1F4
:1008D0003501009107910B900C9000F029FB014627
:1008E00000980891099104910A91059104A905AA1B
:1008F00000F00AF80146019809680D900E910F90DA
:1009000000F07BFB10B080BD80B56F468CB00290CC
:10091000039104920692079202980078089207F8D1
:10092000090C08990A91096821F4E021019141F22A
:100930008421C0F20001FFF7E4FD0146019801F0B7
:10094000070208990B9140EA024008600898059058
:100950000CB080BD80B56F4682B0781E0621FFF7CF
:10096000AAFF02B080BD80B56F46FFF7A9FD80BD2C
:1009700040F20001C2F2000101200870704780B50A
:100980006F46FFF75BFD80BD80B56F46FFF777FDD3
:1009900080BD40F20101C2F20001012008707047E1
:1009A00080B56F46FFF7F5FF80BD80B56F4692B00A
:1009B000049105900691FFE704990598884202D3B7
:1009C000FFE712B080BD059802900021019107F861
:1009D000291C01200390089007F8211C0A900BA8FD
:1009E0000C900D90042100F033F8019902980B91BE
:1009F0000B990E910F9100F07FF8039905981090D4
:100A0000119104300590D7E780B56F468AB0029106
:100A1000039004920591FFE702990398884202D35C
:100A2000FFE70AB080BD03980190049800F0CBF86E
:100A30000146019800F0CCF8039806900121079137
:100A40000430039004980890099104300490E3E77F
:100A500080B56F468EB0019141F2C022C0F2000213
:100A600003920A900B910C900146029108B9FFE79E
:100A700019E001984FF0553101EA5001401A4FF04A
:100A8000333101EA900120F0CC30084400EB101023
:100A900020F0F0304FF001314843000E0D900D98DA
:100AA000012807D00CE041F2C820C0F200006F21FD
:100AB00000F05FFB02980199013908421AD0F2E771
:100AC00041F2C020C0F2000004900120059041F2E4
:100AD0003830C0F200000168406808910990042095
:100AE00006900020079041F29431C0F2000104A862
:100AF00000F00AFB0EB080BD80B56F4684B0009157
:100B0000019002900391FFE70198042100F006F89C
:100B1000FFE700980199086004B080BD80B56F467A
:100B20008EB0009141F2C022C0F200020292099000
:100B30000A910B900C900146019108B9FFE719E06A
:100B400000984FF0553101EA5001401A4FF033310F
:100B500001EA900120F0CC30084400EB101020F0A6
:100B6000F0304FF001314843000E0D900D980128F0
:100B700007D00CE041F2A430C0F200006F2100F079
:100B8000F8FA01980099013908421AD0F2E741F2C7
:100B9000C020C0F2000003900120049041F23830E0
:100BA000C0F2000001684068079108900420059099
:100BB0000020069041F29431C0F2000103A800F039
:100BC000A3FA0EB080BD81B00090006801B07047FC
:100BD00082B000900191016002B0704780B56F460D
:100BE0008AB041F24841C0F20001029107F8190CA5
:100BF00017F8190C01900199DFE801F0041E1F207D
:100C00002100FEDE41F24840C0F2000004900120C5
:100C1000059041F23830C0F2000001684068089148
:100C20000990042006900020079041F2A041C0F2F4
:100C3000000104A800F068FA02E001E000E0FFE72C
:100C40000AB080BD80B56F4682B0FFE7042007F888
:100C5000010C17F8010CFFF7C1FFF7E77047D4D478
:100C600080B56F468AB041F2E441C0F200010291C2
:100C700007F8190C17F8190C01900199DFE801F039
:100C8000041E1F202100FEDE41F2E440C0F20000FD
:100C900004900120059041F23830C0F20000016854
:100CA000406808910990042006900020079041F2C6
:100CB0003C51C0F2000104A800F026FA02E001E075
:100CC00000E0FFE70AB080BD80B56F4682B00190BA
:100CD000FFE7042007F8050C17F8050CFFF7C0FF25
:100CE000F7E781B001B0704780B56F4682B0002051
:100CF00007F8010C17F8010C00F00101B81E00F014
:100D0000D1F802B080BD80B56F4684B000900290EB
:100D100003914FF47A70A1FB0010019130B9FFE705
:100D20000199009800F008F804B080BD41F26450C9
:100D3000C0F2000000F046FA80B56F4688B002901D
:100D4000069007911220A1FB0010039118B9FFE74C
:100D50000398049005E041F27450C0F2000000F0E6
:100D600031FA049810B9FFE708B080BD0498B0F1DB
:100D7000807F04D3FFE76FF07F40059002E0049886
:100D80000590FFE70298059900F020F8029800F01E
:100D900042F8029800F052F805990498421A01921C
:100DA000884203D3FFE70198049005E041F28450A4
:100DB000C0F2000000F0F3F9029800F01AF80028E1
:100DC000FAD0FFE7029800F053F8CAE780B56F4603
:100DD00088B00090019107904EF21400CEF200000E
:100DE0000290039104900591069000F006F908B076
:100DF00080BD80B56F4686B0019005904EF2100020
:100E0000CEF2000002900390049000F091F8C0F33D
:100E1000004006B080BD80B56F4688B00190079055
:100E20004EF21800CEF200000290002103910490CF
:100E30000591069000F0E1F808B080BD80B56F46DE
:100E40008AB0029009904EF21000CEF2000001909C
:100E500003900490059000F06BF800F03BF9014618
:100E6000019806900791089000F0C7F80AB080BD7D
:100E700080B56F468AB0029009904EF21000CEF213
:100E80000000019003900490059000F051F800F0EC
:100E90001BF90146019806900791089000F0ADF803
:100EA0000AB080BD80B56F4694B0039007F83D1C32
:100EB000059017F83D0CC007B0B9FFE703981390F1
:100EC0004EF21000CEF200000290079008900990B8
:100ED00000F02EF800F020F8014602980C900D91D9
:100EE0000E9000F08AF815E0039812904EF2100070
:100EF000CEF20000019006900A900B9000F018F8D6
:100F000000F010F8014601980F901091119000F038
:100F100074F8FFE714B080BD82B0019040F0040087
:100F200002B0704782B0019020F0040002B0704718
:100F300080B56F4684B001900290FFE701980421CC
:100F400000F007F8FFE7019800680390039804B0E9
:100F500080BD80B56F468EB0019141F2C052C0F2A3
:100F6000000203920A900B910C900146029108B97D
:100F7000FFE719E001984FF0553101EA5001401A9E
:100F80004FF0333101EA900120F0CC30084400EBFF
:100F9000101020F0F0304FF001314843000E0D905A
:100FA0000D98012807D00CE041F2C850C0F20000B3
:100FB0006E2100F0DEF802980199013908421AD03A
:100FC000F2E741F2C050C0F2000004900120059009
:100FD00041F23830C0F20000016840680891099081
:100FE000042006900020079041F28861C0F20001C1
:100FF00004A800F089F80EB080BD80B56F4684B0BB
:101000000091019002900391FFE70198042100F004
:1010100006F8FFE700980199086004B080BD80B52C
:101020006F468EB0009141F2C052C0F200020292AF
:1010300009900A910B900C900146019108B9FFE7C5
:1010400019E000984FF0553101EA5001401A4FF075
:10105000333101EA900120F0CC30084400EB10104D
:1010600020F0F0304FF001314843000E0D900D9804
:10107000012807D00CE041F29860C0F200006F2117
:1010800000F077F801980099013908421AD0F2E788
:1010900041F2C050C0F2000003900120049041F2E0
:1010A0003830C0F2000001684068079108900420C1
:1010B00005900020069041F28861C0F2000103A86B
:1010C00000F022F80EB080BD82B0019020F0010047
:1010D00002B0704782B0019040F0010002B070474A
:1010E00072B6704762B6704700BF7047EFF310806A
:1010F0007047704780B56F46024641F25C70C0F29F
:1011000000002B2100F022F880B56F4688B090E8EF
:101110007441EC466346012083E87441ADF81C003D
:1011200060460691FFF7D0FD80B56F4688B090E825
:101130007043EC466346002083E870438DF81C0042
:1011400060468DF81D100692FFF7BEFD80B56F4614
:1011500088B094460122019206AA0023CDE9060137
:101160000092042268466146049303930292FFF7BB
:10117000CBFF80B56F4688B00022CDE9060104920E
:10118000012303920422029241F29C726846C0F24B
:1011900000020021019306AB0093FFF7C5FF80B565
:1011A0006F4686B00146002001220490019241F270
:1011B000287203900420C0F2000202906846009258
:1011C000FFF7A2FF80B56F4686B0014600200122DE
:1011D0000490019241F2547203900420C0F2000284
:1011E000029068460092FFF78FFF70460421084284
:1011F00002D1EFF3088002E0EFF30980FFE780B54A
:101200006F4682B00190FFE7042007F8050C17F83D
:08121000050CFFF7E3FCF7E712
:10121800007372632F6D61696E2E7273191200006C
:101228000B0000001B0000002C0000001912000039
:101238000B0000001C0000002C000000433A5C5525
:10124800736572735C6A656666655C4465736B7426
:101258006F705C70736F635C70736F635F727469D7
:10126800635C70736F63362D7061635C7372635C6B
:1012780067656E657269632E727300004412000020
:101288003E0000002D0200000100000069735F614C
:101298006C69676E65645F746F3A20616C69676E2C
:1012A800206973206E6F74206120706F7765722DCE
:1012B8006F662D74776F0000941200002A000000FA
:1012C800756E7361666520707265636F6E646974AC
:1012D800696F6E2873292076696F6C617465643A4A
:1012E800207074723A3A77726974655F62797465CE
:1012F80073207265717569726573207468617420F2
:101308007468652064657374696E6174696F6E20B2
:10131800706F696E74657220697320616C69676E9D
:10132800656420616E64206E6F6E2D6E756C6C0046
:1013380000000000000000002F72757374632F66B0
:101348003665353131656563373334326635396131
:1013580032356637633035333466316462656130FF
:10136800306430316231342F6C6962726172792F66
:10137800636F72652F7372632F7074722F636F6E51
:1013880073745F7074722E72730000004013000053
:1013980051000000EB0500000D000000756E736140
:1013A800666520707265636F6E646974696F6E2814
:1013B80073292076696F6C617465643A2070747261
:1013C8003A3A77726974655F766F6C6174696C65B7
:1013D8002072657175697265732074686174207410
:1013E800686520706F696E74657220617267756DCB
:1013F800656E7420697320616C69676E656420612D
:101408006E64206E6F6E2D6E756C6C746865726597
:10141800206973206E6F2073756368207468696E25
:101428006720617320612072656C61786564206350
:101438006F6D70696C65722066656E63650000008B
:1014480013140000320000002F72757374632F6646
:101458003665353131656563373334326635396120
:1014680032356637633035333466316462656130EE
:10147800306430316231342F6C6962726172792F55
:10148800636F72652F7372632F73796E632F617444
:101498006F6D69632E727300501400004F000000D6
:1014A8009C0E00001800000074686572652069735E
:1014B800206E6F2073756368207468696E67206199
:1014C8007320612072656C6178656420636F6D704C
:1014D800696C65722066656E63650000B014000073
:1014E800320000002F72757374632F6636653531CC
:1014F800316565633733343266353961323566377D
:10150800633035333466316462656130306430315C
:101518006231342F6C6962726172792F636F726500
:101528002F7372632F73796E632F61746F6D6963A4
:101538002E727300EC1400004F0000009C0E000097
:101548001800000070736F63362D68616C5C7372ED
:10155800635C64656C61792E727300004C15000041
:101568001600000020000000170000004C150000C5
:1015780016000000350000001D0000004C1500009A
:1015880016000000430000000D00000069735F6151
:101598006C69676E65645F746F3A20616C69676E29
:1015A800206973206E6F74206120706F7765722DCB
:1015B8006F662D74776F0000941500002A000000F4
:1015C800756E7361666520707265636F6E646974A9
:1015D800696F6E2873292076696F6C617465643A47
:1015E800207074723A3A726561645F766F6C6174E8
:1015F800696C6520726571756972657320746861BC
:10160800742074686520706F696E746572206172E9
:1016180067756D656E7420697320616C69676E65A6
:101628006420616E64206E6F6E2D6E756C6C2F7207
:10163800757374632F663665353131656563373385
:10164800343266353961323566376330353334665E
:10165800316462656130306430316231342F6C69D5
:1016680062726172792F636F72652F7372632F7064
:1016780074722F636F6E73745F7074722E7273005E
:101688003616000051000000EB0500000D000000B8
:10169800756E7361666520707265636F6E646974D8
:1016A800696F6E2873292076696F6C617465643A76
:1016B800207074723A3A77726974655F766F6C61FC
:1016C80074696C65207265717569726573207468D8
:1016D80061742074686520706F696E74657220612A
:1016E8007267756D656E7420697320616C69676EC9
:1016F800656420616E64206E6F6E2D6E756C6C6112
:101708007474656D707420746F207375627472617F
:1017180063742077697468206F766572666C6F777A
:101728000717000021000000617474656D70742053
:10173800746F206D756C7469706C79207769746842
:10174800206F766572666C6F7700000030170000B6
:101758002100000063616C6C656420604F707469DF
:101768006F6E3A3A756E77726170282960206F6ED5
:10177800206120604E6F6E65602076616C756563D0
:101788006F72652F7372632F70616E69636B696E18
:10179800672E72738717000015000000DD00000037
:0417A8000500000038
:0400000300000401F4
:00000001FF
